{
  "contractName": "TodoList",
  "abi": [
    {
      "constant": true,
      "inputs": [
        {
          "name": "",
          "type": "uint256"
        }
      ],
      "name": "tasks",
      "outputs": [
        {
          "name": "id",
          "type": "uint256"
        },
        {
          "name": "content",
          "type": "string"
        },
        {
          "name": "completed",
          "type": "bool"
        }
      ],
      "payable": false,
      "stateMutability": "view",
      "type": "function",
      "signature": "0x8d977672"
    },
    {
      "constant": true,
      "inputs": [],
      "name": "taskCount",
      "outputs": [
        {
          "name": "",
          "type": "uint256"
        }
      ],
      "payable": false,
      "stateMutability": "view",
      "type": "function",
      "signature": "0xb6cb58a5"
    },
    {
      "inputs": [],
      "payable": false,
      "stateMutability": "nonpayable",
      "type": "constructor",
      "signature": "constructor"
    },
    {
      "constant": false,
      "inputs": [
        {
          "name": "_content",
          "type": "string"
        }
      ],
      "name": "createTask",
      "outputs": [],
      "payable": false,
      "stateMutability": "nonpayable",
      "type": "function",
      "signature": "0x111002aa"
    }
  ],
  "bytecode": "0x60806040526000805534801561001457600080fd5b50610089606060405190810160405280603681526020017f5468697320697320616e20696e74726f64756374696f6e20746f2070726f677281526020017f616d6d696e67207769746820426c6f636b436861696e0000000000000000000081525061008e640100000000026401000000009004565b610195565b60008054600190810180835560408051606081018252828152602080820187815282840187905293865284815291909420845181559151805192936100db939085019291909101906100fa565b50604091909101516002909101805460ff191691151591909117905550565b828054600181600116156101000203166002900490600052602060002090601f016020900481019282601f1061013b57805160ff1916838001178555610168565b82800160010185558215610168579182015b8281111561016857825182559160200191906001019061014d565b50610174929150610178565b5090565b61019291905b80821115610174576000815560010161017e565b90565b6103d3806101a46000396000f3fe6080604052600436106100565763ffffffff7c0100000000000000000000000000000000000000000000000000000000600035041663111002aa811461005b5780638d97767214610110578063b6cb58a5146101c4575b600080fd5b34801561006757600080fd5b5061010e6004803603602081101561007e57600080fd5b81019060208101813564010000000081111561009957600080fd5b8201836020820111156100ab57600080fd5b803590602001918460018302840111640100000000831117156100cd57600080fd5b91908080601f0160208091040260200160405190810160405280939291908181526020018383808284376000920191909152509295506101eb945050505050565b005b34801561011c57600080fd5b5061013a6004803603602081101561013357600080fd5b5035610257565b604051808481526020018060200183151515158152602001828103825284818151815260200191508051906020019080838360005b8381101561018757818101518382015260200161016f565b50505050905090810190601f1680156101b45780820380516001836020036101000a031916815260200191505b5094505050505060405180910390f35b3480156101d057600080fd5b506101d9610306565b60408051918252519081900360200190f35b60008054600190810180835560408051606081018252828152602080820187815282840187905293865284815291909420845181559151805192936102389390850192919091019061030c565b50604091909101516002909101805460ff191691151591909117905550565b600160208181526000928352604092839020805481840180548651600296821615610100026000190190911695909504601f810185900485028601850190965285855290949193929091908301828280156102f35780601f106102c8576101008083540402835291602001916102f3565b820191906000526020600020905b8154815290600101906020018083116102d657829003601f168201915b5050506002909301549192505060ff1683565b60005481565b828054600181600116156101000203166002900490600052602060002090601f016020900481019282601f1061034d57805160ff191683800117855561037a565b8280016001018555821561037a579182015b8281111561037a57825182559160200191906001019061035f565b5061038692915061038a565b5090565b6103a491905b808211156103865760008155600101610390565b9056fea165627a7a72305820a1b0d124b6b89e5dfcb1c621eb1f20fdbda9ad39f3d4eededd9e4e18487bdd3e0029",
  "source": "pragma solidity >=0.5.0;\r\n\r\n// This contract will have all the basic todolist details\r\n// uint is how we define a state variable. These state variables\r\n// will be written inside the blockchain and will be permanent once the blockchain is hosted.\r\n// This is like the class variable in cpp.\r\ncontract TodoList {\r\n    // unsigned int\r\n    uint public taskCount = 0;\r\n    // the keyword public allows us to read the value of taskcount through a function.\r\n    // Solidity will provide us a reader function for free to read the value of taskcount.\r\n    struct Task {\r\n        uint id;\r\n        string content;\r\n        bool completed;\r\n    }\r\n    // The above is how we'll model the tasks of the todo list\r\n    // We are going to store this model in the storage of the blockchain.\r\n\r\n    mapping(uint => Task) public tasks;\r\n    // mapping is a datastructure that is basically a dictionary of key value pairs. Datatype of key is uint and\r\n    // datatype of value is Task. We're going to use id as key.\r\n    // Solidity gives us a free tasks function to access the task variable.\r\n\r\n    // Contructor will run once at deployment.\r\n    constructor() public {\r\n        // The following is a default task for the todo list\r\n        createTask(\"This is an introduction to programming with BlockChain\");\r\n    }\r\n\r\n    function createTask(string memory _content) public {\r\n        taskCount++;\r\n        tasks[taskCount] = Task(taskCount, _content, false);\r\n    }\r\n}",
  "sourcePath": "C:/Users/siddh/Desktop/Sisyphus/Programming/Blockchain/eth-todo-list/contracts/TodoList.sol",
  "compiler": {
    "name": "solc",
    "version": "0.5.0+commit.1d4f565a.Emscripten.clang"
  },
  "schemaVersion": "3.0.1",
  "updatedAt": "2020-07-11T07:28:59.383Z",
  "devdoc": {
    "methods": {}
  },
  "userdoc": {
    "methods": {}
  }
}