{
  "contractName": "TodoList",
  "abi": [
    {
      "constant": true,
      "inputs": [],
      "name": "taskCount",
      "outputs": [
        {
          "name": "",
          "type": "uint256"
        }
      ],
      "payable": false,
      "stateMutability": "view",
      "type": "function",
      "signature": "0xb6cb58a5"
    }
  ],
  "bytecode": "0x608060405260008055348015601357600080fd5b50609e806100226000396000f3fe608060405260043610603f576000357c0100000000000000000000000000000000000000000000000000000000900463ffffffff168063b6cb58a5146044575b600080fd5b348015604f57600080fd5b506056606c565b6040518082815260200191505060405180910390f35b6000548156fea165627a7a723058203713599b9155a91e5c710a40f012c22ddb9538500cbc99e0fb68a4041c4675af0029",
  "source": "pragma solidity >=0.5.0;\r\n\r\n// This contract will have all the basic todolist details\r\n// uint is how we define a state variable. These state variables\r\n// will be written inside the blockchain and will be permanent once the blockchain is hosted.\r\n// This is like the class variable in cpp.\r\ncontract TodoList {\r\n    uint public taskCount = 0;\r\n    // the keyword public allows us to read the value of taskcount through a function.\r\n}",
  "sourcePath": "C:/Users/siddh/Desktop/Sisyphus/Programming/Blockchain/eth-todo-list/contracts/TodoList.sol",
  "compiler": {
    "name": "solc",
    "version": "0.5.0+commit.1d4f565a.Emscripten.clang"
  },
  "schemaVersion": "3.0.1",
  "updatedAt": "2020-07-10T20:29:56.920Z",
  "devdoc": {
    "methods": {}
  },
  "userdoc": {
    "methods": {}
  }
}